:100000000C945F060C94A6060C94A6060C94A60607
:100010000C94A6060C94A6060C94A6060C94A606B0
:100020000C94A6060C94A6060C94800E0C94530F08
:100030000C94A6060C94A6060C94A6060C94A60690
:100040000C94A6060C94452A0C94A6060C94A606BD
:100050000C94A6060C94DB1E0C94A6060C94A60623
:100060000C94A6060C94A6060C94A6060C94A60660
:100070000C94A6060C94A6060C94A6060C94A60650
:100080000C94A6060C94A6060C94A6060C94A60640
:100090000C94A6060C94A6060C94A6060C94A60630
:1000A0000C94A6060C94A6060C94A606018C65A1D9
:1000B0000048004C2726252A242B141F1E00000070
:1000C00000004B00452F2D30491C3E3C1A21003FBB
:1000D0000000004A00B413120C0018150839200063
:1000E00017000000470028330F0E310D0907640484
:1000F00000E300000000E6C1383400500B0A3D1652
:10010000290000E200004DE54E3237360010190696
:100110001B1DE1000000E44F00525100002C1105AE
:100120002C0000000000E0004600442E4241434005
:10013000223B3A35002300000001000101010101CA
:1001400001010101010000000000010001010101A5
:10015000010101AA010100010000000100010101EB
:100160000100010101010100010000000100010185
:100170000101010101010101000100000000010174
:100180000101004A0101A901010000010000010173
:100190000101010100010101010101000000014D07
:1001A000004B4E00000101010100000000000100B1
:1001B000010001010101010101A8B00100010000DD
:1001C0000A002530313662003A20002530325800CE
:1001D0000A722F63203031323334353637383941A3
:1001E00042434445460A000A002530325800626FF7
:1001F000756E6365213A20005B735D004B65796223
:100200006F6172642073746172742E0A00555342D8
:1002100020636F6E666967757265642E0A005B57AE
:100220005D005B535D005B525D005B445D005B43C2
:100230005D002A034D006900630072006F007300C7
:100240006F006600740020005300630075006C00AE
:100250007000740020006D006F00640000000E0349
:1002600074002E006D002E006B002E0000000403B1
:10027000090409028D00050100A0320904000001F3
:1002800003010100092111010001223F000705813E
:100290000308000A090401000103010200092111F9
:1002A000010001224D000705820308000A0904022B
:1002B000000103000000092111010001223600079E
:1002C00005830308000A0904030002030000000973
:1002D00021110100012220000705840320000107ED
:1002E00005040320000109040400010300000009C3
:1002F00021110100012239000705850310000112B8
:1003000001100100000008EDFE6060010001020024
:100310000105010906A101050719E029E7150025D6
:1003200001950875018102050819012905950575D2
:1003300001910295017503910105071900297715AF
:10034000002501957875018102C00631FF0974A16D
:10035000010975150025FF9520750881020976159C
:100360000025FF952075089102C005010980A101B3
:10037000850216010026B7001A01002AB700751081
:1003800095018100C0050C0901A10185031601003A
:10039000269C021A01002A9C02751095018100C05A
:1003A00005010902A1010901A10005091901290599
:1003B00015002501950575018102950175038101DF
:1003C0000501093009311581257F950275088106DF
:1003D00009381581257F950175088106050C0A38B5
:1003E000021581257F950175088106C0C0050109A8
:1003F00006A101050719E029E715002501950875F3
:1004000001810295017508810105081901290595E9
:1004100005750191029501750391010507190029E0
:10042000FF150025FF950675088100C00A002530DC
:10043000325820006B6579626F6172645F7265701B
:100440006F72743A20000A0025303258006B6579CB
:10045000626F6172645F7365745F6C65643A2000FB
:1004600064656C5F6B65795F6269743A2063616E85
:1004700027742064656C3A20253032580A00616484
:10048000645F6B65795F6269743A2063616E27749B
:10049000206164643A20253032580A00646F6E652A
:1004A0002E0A00626F6F746D616769632073636108
:1004B0006E3A202E2E2E2000290A002575002F00CE
:1004C0002575005D280025640020002564002000BB
:1004D00025640020002564007C0025303258006D22
:1004E0006F7573656B6579205B62746E7C782079BB
:1004F000207620685D287265702F61636C293A2030
:100500005B006D6B5F776865656C5F74696D655FD7
:10051000746F5F6D6178203D2025640A006D6B5F0C
:10052000776865656C5F6D61785F73706565642081
:100530003D2025640A006D6B5F74696D655F746FA3
:100540005F6D6178203D2025640A006D6B5F6D61F1
:10055000785F7370656564203D2025640A006D6BCB
:100560005F696E74657276616C203D2025640A00B7
:100570006D6B5F64656C6179203D2025640A006DB8
:100580006B5F776865656C5F74696D655F746F5FDD
:100590006D6178203D2025640A006D6B5F7768658A
:1005A000656C5F6D61785F7370656564203D2025C3
:1005B000640A006D6B5F74696D655F746F5F6D6178
:1005C00078203D2025640A006D6B5F6D61785F7354
:1005D00070656564203D2025640A006D6B5F696E5F
:1005E00074657276616C203D2025640A006D6B5F36
:1005F00064656C6179203D2025640A000A00257538
:1006000000363A20776865656C5F74696D655F7464
:100610006F5F6D61783A20000A00257500353A2039
:10062000776865656C5F6D61785F73706565643A66
:1006300020000A00257500343A2074696D655F74E6
:100640006F5F6D61783A20000A00257500333A200B
:100650006D61785F73706565643A20000A002575E6
:1006600000323A20696E74657276616C286D732968
:100670003A20000A00257500313A2064656C6179E2
:10068000282A31306D73293A20000A092D2056613D
:100690006C756573202D0A004D3E004D25643E208B
:1006A000003F007365742064656661756C740A00B0
:1006B000433E200077686572652064656C74613A1A
:1006C00020637572736F723D25642C2077686565B1
:1006D0006C3D25640A53656520687474703A2F2F49
:1006E000656E2E77696B6970656469612E6F7267DC
:1006F0002F77696B692F4D6F7573655F6B657973C4
:100700000A000A092D204D6F7573656B6579202DE0
:100710000A4553432F713A09717569740A313A09D0
:1007200064656C6179282A31306D73290A323A097F
:10073000696E74657276616C286D73290A333A09A3
:100740006D61785F73706565640A343A0974696D28
:10075000655F746F5F6D61780A353A097768656522
:100760006C5F6D61785F73706565640A363A09770E
:100770006865656C5F74696D655F746F5F6D6178E6
:100780000A0A703A097072696E742076616C756538
:10079000730A643A097365742064656661756C74E4
:1007A000730A75703A092B310A646F776E3A092D16
:1007B000310A706775703A092B31300A7067646FBF
:1007C000776E3A092D31300A0A7370656564203DF1
:1007D0002064656C7461202A206D61785F73706598
:1007E0006564202A2028726570656174202F20744A
:1007F000696D655F746F5F6D6178290A003F004D18
:100800003E2000433E20004C25640A000A092D20AA
:10081000436F6E736F6C65202D0A4553432F713AF9
:1008200009717569740A6D3A096D6F7573656B6549
:10083000790A000A092D204D61676963202D0A6439
:100840003A0964656275670A783A09646562756792
:10085000206D61747269780A6B3A09646562756724
:10086000206B6579626F6172640A6D3A0964656232
:100870007567206D6F7573650A763A0976657273D0
:10088000696F6E0A733A097374617475730A633A17
:1008900009636F6E736F6C65206D6F64650A302D30
:1008A000343A096C61796572302D34284631302D27
:1008B0004634290A506175733A09626F6F746C6F20
:1008C000616465720A653A09656570726F6D0A6EDA
:1008D0003A094E4B524F0A7A3A09736C656570209B
:1008E0004C454420746573740A000A002575002E77
:1008F0006E6B726F3A20000A002575002E737761C7
:10090000705F6261636B736C6173685F6261636B7C
:1009100073706163653A20000A002575002E7377B5
:1009200061705F67726176655F6573633A20000A84
:10093000002575002E6E6F5F6775693A20000A000A
:100940002575002E737761705F72616C745F7267DA
:1009500075693A20000A002575002E737761705F73
:100960006C616C745F6C6775693A20000A002575CC
:10097000002E636170736C6F636B5F746F5F636F86
:100980006E74726F6C3A20000A002575002E737722
:1009900061705F636F6E74726F6C5F636170736CB4
:1009A0006F636B3A20000A0025303258006B65797E
:1009B0006D61705F636F6E6669672E7261773A2052
:1009C000000A002575002E6D6F7573653A20000AC8
:1009D000002575002E6B6579626F6172643A2000A4
:1009E0000A002575002E6D61747269783A20000A3C
:1009F000002575002E656E61626C653A20000A0064
:100A0000253032580064656275675F636F6E666992
:100A1000672E7261773A20000A00257500646566CA
:100A200061756C745F6C617965723A20003F004EAD
:100A30004B524F3A206F66660A004E4B524F3A2097
:100A40006F6E0A0074696D65725F7265616433323E
:100A500028293A202530346C580A006B6579626F7A
:100A60006172645F6E6B726F3A2025580A006B6585
:100A700079626F6172645F69646C653A2025580A17
:100A8000006B6579626F6172645F70726F746F631F
:100A90006F6C3A2025580A00686F73745F6B657934
:100AA000626F6172645F6C65647328293A2025580F
:100AB0000A000A092D20537461747573202D0A00F1
:100AC0004743433A20392E322E30204156522D4C86
:100AD0004942433A20322E302E3073766E204156F2
:100AE000525F415243483A20617672350A004F50B6
:100AF00054494F4E533A204C55464120424F4F5493
:100B00004D41474943204D4F5553454B455920458D
:100B1000585452414B455920434F4E534F4C45205A
:100B2000434F4D4D414E44204E4B524F20343039AF
:100B3000360A004255494C443A20756E6B6E6F7709
:100B40006E202831393A32333A33392044656320F4
:100B500020342032303139290A005649443A2030B5
:100B6000784645454428742E6D2E6B2E2920504919
:100B7000443A20307836303630284D6963726F73CE
:100B80006F6674205363756C7074206D6F642920D8
:100B90005645523A203078303030310A00444553BF
:100BA000433A20742E6D2E6B2E206B6579626F6137
:100BB0007264206669726D7761726520666F72205B
:100BC0004D6963726F736F6674205363756C7074D4
:100BD0000A000A092D2056657273696F6E202D0A6E
:100BE000000A6D6F7573653A206F66660A000A6DBC
:100BF0006F7573653A206F6E0A000A6B6579626FD4
:100C00006172643A206F66660A000A6B6579626FEA
:100C10006172643A206F6E0A000A6D6174726978BD
:100C20003A206F66660A000A6D61747269783A202C
:100C30006F6E0A000A64656275673A206F6E0A007B
:100C40000A64656275673A206F66660A000A0A627E
:100C50006F6F746C6F616465722E2E2E2000433EA0
:100C600020006565636F6E6669673A0A00536C65BC
:100C70006570204C454420746573740A00000000C0
:100C80000000000000000000010204060A0F172007
:100C90002C3A4A5D71879DB3C7DAE9F5FCFFFCF594
:100CA000E9DAC7B39D87715D4A3A2C20170F0A060F
:100CB00004020100000000000000000000001124F8
:100CC0001FBECFEFDAE0DEBFCDBF04B603FE27C004
:100CD0008091490290914A02A0914B02B0914C023E
:100CE0008730904BA740B04BD1F41092490210923C
:100CF0004A0210924B0210924C0214BE84B7877FB6
:100D000084BF0FB6F894A8958091600088618093A5
:100D10006000109260000FBEE0E0F8E3099511E07A
:100D2000A0E0B1E0ECEEF8E502C005900D92A8332A
:100D3000B107D9F722E0A8E3B1E001C01D92A934C0
:100D4000B207E1F70E94BE0B0C94202C0C9400001B
:100D5000FF93EF93E0913801F0913901309709F05A
:100D60000995EF91FF910895FC018591803011F074
:100D7000EFDFFBCF0895FF27E0E230E247FF0CC032
:100D8000419597FF09C0EDE260957095809590952B
:100D9000611D711D811D911D27FF02C0219530E34A
:100DA00050E2AA27660F771F881F991FAA1FA41752
:100DB00010F0A41B63955A95A9F7AA3008F0A95F13
:100DC000A05DAF93F395611571058105910541F71C
:100DD000ED3211F4EF93F395F21718F43F93F39576
:100DE000FBCF8F91B5DFFA95E1F70895E991F9917D
:100DF0008591803021F0853219F0AADFF9CF08956E
:100E000020E0E89455915532C1F3503311F46894C1
:100E100055915A3348F4505390F3220F022E220F6B
:100E2000220F200D250FF4CF0EF421958991999171
:100E3000533619F3533729F1533559F1BC0188273B
:100E40009927E8945C3621F4899199916894559199
:100E5000543639F446EF7EF077FF0DC08FEF9FEFE9
:100E60000AC055374AE039F0583540E121F0523692
:100E700042E009F00895FF93EF937DDFEF91FF913A
:100E8000B7CFFF93EF93FC0181918030B9F360DF1E
:100E9000FBCFFF93EF9368DFF1CFDF93CF93CDB715
:100EA000DEB72596A3DFCF91DF910895972F70E0ED
:100EB00021E1929F600D711D112498E8899F600DBA
:100EC000711D1124FB01E055FF4F84910895282FD7
:100ED000205C330BF901EE0FFF1FE455FF4F8591A6
:100EE0009491089584B1877784B985B1877785B95E
:100EF00087B18F7387B988B18F7388B98AB1807FC2
:100F00008AB98BB1807F8BB908950E94720784B132
:100F1000887884B985B1876785B98AB18F708AB9B5
:100F20008BB1806F8BB96E98769A80B38C7080BBD2
:100F300081B3836F81BBEAE5F1E0AAE3B1E01192EE
:100F40001192119211921D921D921D921D9281E09B
:100F5000EA37F807A1F70895DF92EF92FF920F9317
:100F60001F93CF93DF93CAE3D1E08E01D12CEFEF33
:100F7000ED0DE73028F4F0E0EE5DF34D0C94D52B49
:100F80003F9A479880EA8A95F1F783B186958695CE
:100F900091E0892780FBEE24E0F8F12C1999D3C069
:100FA00082E090E08E299F291899D0C024E030E09B
:100FB000822B932B6699CDC028E030E0822B932BB7
:100FC0004D99CAC020E130E0822B932B4C99C7C0C9
:100FD00020E230E0822B932B4E99C4C020E430E015
:100FE000822B932B4F99C1C020E830E0822B932BAA
:100FF0001C99BEC020E031E0822B932B1D99BBC011
:1010000020E032E0822B932B1E99B8C020E034E020
:10101000822B932B7F99B5C020E038E0822B932B55
:101020007E99B2C020E030E1822B932B7D99AFC036
:1010300020E030E2822B932B7C99ACC020E030E49E
:10104000822B932B7999A9C020E030E8822B932B37
:10105000092E000CAA0BBB0B7899A2C040E050E00F
:1010600061E070E0842B952BA62BB72BF801419102
:101070005191619171918F01481759076A077B0758
:1010800071F1349780839183A283B38380910001AF
:10109000882311F18091290280FF1EC08EEE91E01D
:1010A0000E94B4068091290280FF16C08091000141
:1010B0001F928F9389EE91E09F938F930E944D072B
:1010C000809129020F900F900F900F9080FF04C025
:1010D00087EE91E00E94B40685E0809300010E94B3
:1010E0007207D394F8E0DF1242CF80910001882389
:1010F00061F0815080930001882309F455C08FE985
:101100009FE00197F1F700C0000081E0DF91CF91EF
:101110001F910F91FF90EF90DF9008953E9A4698AF
:1011200031CF539A5B982ECF529A5A982BCF519A1F
:10113000599828CF509A589825CF279A2F9822CF80
:10114000239A2B981FCF90E080E02CCF30E020E056
:101150002FCF30E020E032CF30E020E035CF30E05C
:1011600020E038CF30E020E03BCF30E020E03ECF41
:1011700030E020E041CF30E020E044CF30E020E01C
:1011800047CF30E020E04ACF30E020E04DCF30E0E4
:1011900020E050CF30E020E053CF30E020E056CFC9
:1011A00040E050E0BA015ECFEAE5F1E08AE591E087
:1011B00049915991699179914193519361937193B7
:1011C0008C179D07A9F7A1CFCF93DF9300D000D054
:1011D000CDB7DEB794E0899FF0011124E65AFE4FA7
:1011E00080819181A281B381BC01CD010F900F90CC
:1011F0000F900F90DF91CF910895CF92DF92EF92F1
:10120000FF920F931F93CF93DF9380ED91E00E94A5
:10121000B4068AE5E82E81E0F82ED0E0C0E09BEC31
:10122000C92E91E0D92E02EC11E0DF93CF93DF922B
:10123000CF920E944D0788EC91E00E94B406F7011E
:1012400081919191A191B1917F010E94241E9F9360
:101250008F931F930F930E944D0780EC91E00E94A3
:10126000B40621968DB79EB708960FB6F8949EBF28
:101270000FBE8DBFC830D105C1F6DF91CF911F9150
:101280000F91FF90EF90DF90CF9008950895809197
:101290008D0108959FB7F89410927C019FBF9091A3
:1012A0003F02943009F048C02091E9002F7030913E
:1012B000EC00932F917030FD90E8922B24E0209366
:1012C000E9002091EB0020FF34C02091EE0027FFC1
:1012D00030C020917A01222321F02091E80025FFDF
:1012E00028C010927A0126E03091E80035FF14C042
:1012F0008093F1008091E80085FD27C08091E8008F
:1013000080FFFCCF8091E8008E778093E8009F708B
:101310009093E90080E0089530913F02343049F421
:101320003091EB0035FD05C0215041F481E0809300
:101330007A019F709093E9008FEF0895EFE9FFE045
:101340003197F1F700C00000CFCF8FB7F89421E0BC
:1013500020937C018FBFDBCFCF93DF9300D00F9220
:10136000CDB7DEB720913F02243019F523E0298361
:101370008A839B832093E9008FEF9091E80081504E
:1013800095FD06C095ED9A95F1F700008111F5CF16
:101390008091E80085FF0DC050E040E063E070E020
:1013A000CE0101960E947D0C8091E8008E7780939B
:1013B000E8000F900F900F90DF91CF910895CF9399
:1013C000DF9300D00F92CDB7DEB720913F022430DB
:1013D00021F522E029838A839B8383E08093E900BF
:1013E0008FEF9091E800815095FD06C095ED9A959C
:1013F000F1F700008111F5CF8091E80085FF0DC065
:1014000050E040E063E070E0CE0101960E947D0C68
:101410008091E8008E778093E8000F900F900F90F6
:10142000DF91CF91089520913F022430F1F422E022
:101430002093E9002FEF3091E800215035FD06C0E0
:1014400035ED3A95F1F700002111F5CF2091E80034
:1014500025FF0BC050E040E065E070E00E947D0C8D
:101460008091E8008E778093E8000895CF93DF9312
:10147000D82FC92F80913F028430F9F480910B015D
:101480008823F1F080910C018823D1F085E08093CE
:10149000E9008FEF9091E800815095FD06C095E13D
:1014A0009A95F1F700008111F5CF8091E80050E0A6
:1014B00040E060E170E085FD1AC0DF91CF910895B2
:1014C00081E08093E9008FEF9091E800815095FDD5
:1014D00006C095ED9A95F1F700008111F5CF809146
:1014E000E80085FFEACF50E040E068E070E08D2F33
:1014F0009C2F0E947D0C8091E8008E778093E800FD
:1015000080E1ED2FFC2FADE7B1E001900D928A95BF
:10151000E1F7D3CF8EE292E00E94B40680913E02C2
:10152000811109C00E94050E0E94620E8091E200A6
:1015300084608093E20008958AE292E00E94B406FB
:1015400010923E02089586E292E00C94B40682E284
:1015500092E00E94B4060C94322A8EE192E00E943E
:10156000B4060E947F1E0E94382A0E94E6100C9446
:10157000460920917B012F5F822F62E30E94B52BE9
:10158000992319F020937B01089510927B0180919B
:101590007C018823F1F080913F028430C1F4909166
:1015A000E9009F702091EC00822F817020FD80E87F
:1015B000892B94E09093E9009091EB0090FF04C098
:1015C0009091EE0097FD08C08F708093E900109213
:1015D0007C0108951092F1009091E80095FDFACFFA
:1015E0009091E80090FFF0CF9091E8009E77909363
:1015F000E800EACF42E061EC81E00E94810D42E028
:1016000061EC82E00E94810D42E061EC83E00E9487
:10161000810D42E261EC84E00E94810D42E161ECC7
:1016200085E00C94810D80914102893081F148F46C
:10163000823009F492C0833009F44DC0813041F00A
:1016400008958A3009F479C08B3009F45FC0089599
:1016500080914002813AF1F58091E800877F809384
:10166000E8008091440290914502892B61F460E189
:101670008DE791E070E00E94CC0C8091E8008B77C0
:101680008093E800089560E090E080E0F3CF8091DF
:1016900040028132F9F480914402909145028B7F9F
:1016A000892BC1F48091E800877F8093E8008091C6
:1016B000E80082FF0BC08091F10080938D01809142
:1016C000E8008B778093E8000C94B50D80913F0281
:1016D0008111EDCF089580914002813AD9F7809130
:1016E000440290914502892BA9F78091E800877FF9
:1016F0008093E8008091E80080FFFCCF80910B018F
:101700008093F1008091E8008E77DCCF80914002D9
:10171000813201F78091440290914502892BD1F6E4
:101720008091E800877F8093E8000E94B50D80914A
:10173000420280930B010C94831780914002813206
:1017400049F68091E800877F8093E8000E94B50DFC
:101750008091430280938E01089580914002813AE6
:1017600009F0B8CF8091E800877F8093E8008091EE
:10177000E80080FFFCCF80918E01C2CF84B7877FC5
:1017800084BF0FB6F894A89580916000886180931B
:101790006000109260000FBE80E890E00FB6F894F1
:1017A00080936100909361000FBE0E9476110E94A9
:1017B000050E0E94620E8091E20084608093E20038
:1017C0008AE499E00E940B1E789480913F02843055
:1017D000E1F78DE092E00E94B4060E94781181E06A
:1017E00091E00E94E1100E94202A8CEF91E00E947B
:1017F000B40680913F02853019F00E94A611F9CFFE
:1018000088EF91E00E94B4060E94311E80913D0253
:10181000882379F30E945A1E882359F30E94670C8B
:10182000E8CF9C01DA01892F992783309105C1F017
:1018300068F48130910509F445C0029761F48DE8A0
:1018400090E022E732E02D933C9308958132910598
:10185000E1F0829739F190E080E030E020E0F3CFD2
:10186000C9019927213059F08230910559F0EEE6EF
:10187000F2E0892B81F7849190E09F01E4CFEEE5BF
:10188000F2E0F9CFE2E3F2E0F6CF653020F7E62FA1
:10189000F0E0EE0FFF1FEC5DFE4F2081318189E00B
:1018A00090E0D1CF6530B8F670E0FB01EE0FFF1F7E
:1018B000E65EFE4F208131816B5E7E4FFB018081B1
:1018C00090E0C1CF82E190E02FEF32E0BCCF80E129
:1018D00089BD82E189BD09B400FEFDCF8091D800A9
:1018E0008F7D8093D8008091E00082608093E0003B
:1018F0008091E00081FDFCCF0895AF92BF92CF921E
:10190000DF92FF920F931F93CF93DF936C01EB0154
:101910008A010E94D40DF82E811123C001151105F2
:1019200039F0F80180819181C81BD90BC80ED91EEE
:10193000B12CA12C2097A9F08091E80085FD22C050
:101940008091E8008E778093E80001151105A1F0E1
:10195000F80180819181A80EB91EB182A08285E034
:10196000F82E8F2DDF91CF911F910F91FF90DF9077
:10197000CF90BF90AF9008950E94D40D8823D1F2EC
:10198000F82EEFCFF60181916F018093F10021973E
:10199000FFEFAF1ABF0ACECFFC01CB012091460268
:1019A000309147022617370790F0009729F42091CD
:1019B000E8002E772093E80040E0009751F44111B1
:1019C00008C08091E80082FF31C080E00895C9011D
:1019D000F3CF20913F022223A9F12530A9F12091D4
:1019E000E80023FD2DC02091E80022FDEACF2091E0
:1019F000E80020FFE2CF3091F3002091F200009741
:101A000019F02830310558F041E02830310509F04F
:101A100040E02091E8002E772093E800CECF41915E
:101A20004093F10001972F5F3F4FE9CF80913F0234
:101A3000882341F0853041F08091E80083FFC1CFD9
:101A400081E0089582E0089583E00895FC01CB01D0
:101A500020914602309147022617370790F00097F1
:101A600029F42091E8002E772093E80040E00097C9
:101A700051F4411108C08091E80082FF32C080E03B
:101A80000895C901F3CF20913F022223B1F12530FF
:101A9000B1F12091E80023FD2EC02091E80022FD45
:101AA000EACF2091E80020FFE2CF3091F3002091AF
:101AB000F200009719F02830310558F041E0283045
:101AC000310509F040E02091E8002E772093E800EE
:101AD000CECF44914093F100319601972F5F3F4F55
:101AE000E8CF80913F02882341F0853041F080911A
:101AF000E80083FFC0CF81E0089582E0089583E08D
:101B00000895982F973028F08F708093E90081E036
:101B100008959093E900242F762F50E0981731F024
:101B20007091EC002091ED005091F00021FD02C079
:101B30009F5FE8CF3091EB003E7F3093EB00309118
:101B4000ED003D7F3093ED003091EB00316030933C
:101B5000EB007093EC002093ED005093F000209187
:101B6000EE0027FDE5CF80E008958091400287FFD9
:101B700013C08091E80082FF06C08091E8008B7757
:101B80008093E80004C080913F028111F2CF089554
:101B900080913F028823D9F38091E80080FFF8CF3D
:101BA0008091E8008E77ECCF2091E4003091E50041
:101BB00095E6A9012091EC00822F817020FF06C0DC
:101BC0008091E80080FF06C080E008952091E80041
:101BD00022FD1AC080913F02882389F0853089F068
:101BE0008091EB0085FD0FC02091E4003091E5006D
:101BF00042175307F9F29150E1F684E0089582E02C
:101C0000089583E0089581E008950E94730E0E9474
:101C10007B0EE0EEF0E0808181608083E8EDF0E013
:101C200080818F77808319BCA7EDB0E08C918E7F87
:101C30008C9380818F7E808310923E0208950F9353
:101C40001F93CF93DF930E94730E0E947B0EC8ED0B
:101C5000D0E088818F7788838881806888838881B5
:101C60008F7D888319BC10923F0210923B02109224
:101C70003D0210923C0200EE10E0F80180818B7F63
:101C8000808388818160888342E060E080E00E94F8
:101C9000810DE1EEF0E080818E7F8083E2EEF0E066
:101CA000808181608083808188608083F801808169
:101CB0008E7F8083888180618883DF91CF911F919F
:101CC0000F910895E8EDF0E080818F7E8083E7ED4D
:101CD000F0E080818160808384E082BF81E0809336
:101CE0003E020C941F0EE8EDF0E080818E7F808331
:101CF0001092E20008951092DA001092E100089527
:101D00001F920F920FB60F9211242F933F934F9370
:101D10005F936F937F938F939F93AF93BF93EF9353
:101D2000FF938091E10082FF0BC08091E20082FF6F
:101D300007C08091E1008B7F8093E1000E94B90A87
:101D40008091DA0080FF19C08091D80080FF15C013
:101D50008091DA008E7F8093DA008091D90080FF35
:101D600094C080E189BD82E189BD09B400FEFDCF48
:101D700081E080933F020E948A0A8091E10080FF07
:101D800019C08091E20080FF15C08091E2008E7F33
:101D90008093E2008091E20080618093E200809174
:101DA000D80080628093D80019BC85E080933F0200
:101DB0000E94A70A8091E10084FF29C08091E2007F
:101DC00084FF25C080E189BD82E189BD09B400FEA0
:101DD000FDCF8091D8008F7D8093D8008091E10065
:101DE0008F7E8093E1008091E2008F7E8093E200FD
:101DF0008091E20081608093E20080913B02882321
:101E000009F449C084E080933F020E94AD0A8091AA
:101E1000E10083FF29C08091E20083FF25C080910B
:101E2000E100877F8093E10082E080933F0210927F
:101E30003B028091E1008E7F8093E1008091E2007F
:101E40008E7F8093E2008091E20080618093E200C7
:101E500042E060E080E00E94810D8091F0008860A7
:101E60008093F0000E94A30AFF91EF91BF91AF9180
:101E70009F918F917F916F915F914F913F912F91A2
:101E80000F900FBE0F901F90189519BC10923F0233
:101E90000E949C0A72CF8091E30087FD02C081E01E
:101EA000B2CF83E0B0CF1F920F920FB60F921124E2
:101EB0002F933F934F935F936F937F938F939F9352
:101EC000AF93BF93CF93DF93EF93FF93D091E9004C
:101ED000DF708091EC00C82FC17080FDC0E81092C7
:101EE000E9008091F000877F8093F00078940E9451
:101EF000970F1092E9008091F00088608093F000C5
:101F0000CD2BCF70C093E900FF91EF91DF91CF917E
:101F1000BF91AF919F918F917F916F915F914F9101
:101F20003F912F910F900FBE0F901F9018951F9308
:101F3000CF93DF93CDB7DEB7AA970FB6F894DEBF85
:101F40000FBECDBF80E492E0FC0101962091F1002C
:101F5000208322E088349207B9F70E94130B809106
:101F6000E80083FF16C180914002909141029A30AF
:101F700008F00FC1E92FF0E0E75DF34D0C94D52B8D
:101F8000803881F0823809F004C1809144028F705A
:101F90008093E9008091EB0085FB882780F91092FF
:101FA000E90006C080913C0290913D02911182604F
:101FB0009091E800977F9093E8008093F100109251
:101FC000F1008091E8008E77E0C0882309F4CEC04C
:101FD000823009F0DEC0809142028111D1C080912F
:101FE00044028F7009F4D5C08093E9002091EB0082
:101FF00020FFC6C0933031F48091EB008062809363
:10200000EB00BEC09091EB0090619093EB0021E05B
:1020100030E001C0220F8A95EAF72093EA0010927F
:10202000EA008091EB008860EACF8111B2C0109184
:1020300042021F778091E3008078812B8093E30038
:102040008091E800877F8093E8000E94B50D809121
:10205000E80080FFFCCF8091E30080688093E3007C
:1020600082E0111183E080933F0293C08058823058
:1020700008F08FC080914202909143028C3D23E092
:102080009207A1F583E08A838AE289834FB7F894A7
:10209000DE01139620E03EE051E2E32FF0E05093A2
:1020A0005700E49120FF03C0E295EF703F5FEF70AF
:1020B0008E2F90E0EA30C0F0C7968D939D932F5FEE
:1020C000243159F74FBF8091E800877F8093E80063
:1020D0006AE270E0CE0101960E94CC0C8091E8008B
:1020E0008B778093E80055C0C096E7CFAE014F5F75
:1020F0005F4F609144020E94110CBC01892B09F4CE
:1021000048C08091E800877F8093E80089819A81A8
:102110000E94260DE3CF8038E1F58091E800877FAB
:102120008093E80080913B028093F1004ACF8111B7
:1021300030C090914202923060F58091E800877F34
:102140008093E80090933B020E94B50D80913B0282
:10215000882311F084E005C08091E30087FDFACF69
:1021600081E080933F020E94FA0A13C080914202EC
:10217000813079F481E0933009F080E080933D0272
:102180001092E9008091E800877F8093E8000E9428
:10219000B50D8091E80083FF0AC08091E800877F39
:1021A0008093E8008091EB0080628093EB00AA9618
:1021B0000FB6F894DEBF0FBECDBFDF91CF911F9158
:1021C000089590939401809393010895E091930171
:1021D000F0919401309721F00190F081E02D099465
:1021E00080E00895EF92FF920F931F93CF93DF93B8
:1021F0008C01E0919301F09194013097C1F102803C
:10220000F381E02D09958091290282FF30C080FF83
:1022100004C084E394E00E94B406D0E0C0E08EE203
:10222000E82E84E0F82E8091290280FF0EC0F8018C
:10223000EC0FFD1F80811F928F93FF92EF920E94FF
:102240004D070F900F900F900F902196C031D10540
:1022500051F78091290280FF0AC08CE294E0DF915F
:10226000CF911F910F91FF90EF900C94B406DF91E6
:10227000CF911F910F91FF90EF900895E0919301FE
:10228000F0919401309721F00480F581E02D0994BC
:10229000089520919101309192012817390771F02A
:1022A0009093920180939101E0919301F0919401B8
:1022B000309721F00680F781E02D09940895209150
:1022C0008F01309190012817390771F09093900198
:1022D00080938F01E0919301F0919401309721F068
:1022E0000084F185E02D0994089508950C947511EA
:1022F0000E94811E0E9485070C94A320CF93C82FB3
:102300008091290282FF1EC080FF1CC08DE494E0F2
:102310000E94B4068091290280FF14C01F92CF93BF
:1023200088E494E09F938F930E944D078091290247
:102330000F900F900F900F9080FF04C086E494E000
:102340000E94B4068C2FCF910C9446092F923F9295
:102350004F925F926F927F928F929F92AF92BF92B5
:10236000CF92DF92EF92FF920F931F93CF93DF9361
:10237000CDB7DEB72D970FB6F894DEBF0FBECDBF39
:102380000E94AC0786EB91E09987888706E911E007
:10239000312C212C1E828E810E94E4086B017C016D
:1023A000E885F98581909190A190B190F987E887AF
:1023B0008C149D04AE04BF0409F4BEC08E810E943B
:1023C000E4082B013C01DC01CB010197A109B10913
:1023D00084219521A621B721892B8A2B8B2B51F0A3
:1023E0001F82FE818F81F81380C09F819F5F9F8332
:1023F0009830B9F7F801C082D182E282F3828091ED
:10240000290281FD0E94FD0890E080E08C249D243B
:10241000AE24BF24B501A401082E04C076956795AB
:10242000579547950A94D2F740FFA2C08983FE8151
:10243000FA83812C912C5401839404C0880C991C3C
:10244000AA1CBB1C8A95D2F7C820D920EA20FB2001
:1024500081E0CD28CE28CF2809F480E08B830E942C
:102460008A1E8160782F9D838C8349815A816B817C
:102470008D810E94D712F101EE0FFF1FEE0FFF1F9B
:10248000EA54FE4F80819181A281B38188259925EC
:10249000AA25BB2580839183A283B3830E9436241F
:1024A0000E94E61090919501891709F467C00E9477
:1024B000E610809395012D960FB6F894DEBF0FBEFF
:1024C000CDBFDF91CF911F910F91FF90EF90DF90E3
:1024D000CF90BF90AF909F908F907F906F905F90C4
:1024E0004F903F902F900C947E118F810E94E408B2
:1024F0006A877B878C879D87DC01CB0184219521AE
:10250000A621B721892B8A2B8B2B09F46ECF8091C2
:10251000290281FF0CC0F80180819181A281B381E1
:102520008C159D05AE05BF0511F00E94FD08F80150
:10253000C082D182E282F3828E818F5F8E839FEF91
:10254000291A390A0C5F1F4F883009F024CF8FEF0A
:1025500089838A831B820E948A1E8160782F9D83D3
:102560008C8349815A816B818D810E94D71296CFCD
:1025700001968131910509F04DCFDECF2D960FB632
:10258000F894DEBF0FBECDBFDF91CF911F910F91A9
:10259000FF90EF90DF90CF90BF90AF909F908F9083
:1025A0007F906F905F904F903F902F900895CF93C2
:1025B000DF93CDB7DEB72B970FB6F894DEBF0FBE13
:1025C000CDBF4F83588769877A878B871E8285E0C6
:1025D000FE013796DE01119601900D928A95E1F782
:1025E00049815A816B817C818D819E812B960FB6AA
:1025F000F894DEBF0FBECDBFDF91CF910C94FF19D1
:10260000CF93C82F882309F4B9C0823879F40E9487
:10261000E61081FDB3C089E30E94041D0E94E51D00
:1026200089E30E94521DCF910C94E51D833859F423
:102630000E94E61080FDA2C083E50E94041D0E9456
:10264000E51D83E5EECF843859F40E94E61082FD43
:1026500095C087E40E94041D0E94E51D87E4E1CF38
:102660008CEF8C0F813A48F48C2F0E94D428811172
:1026700085C08C2F0E94041DD6CF80E28C0F88303D
:1026800048F4C77081E001C0880FCA95EAF70E943C
:10269000AA1DC9CF8BE58C0F833068F481E890E0E8
:1026A000C53A31F083E890E0C63A11F482E890E050
:1026B000CF910C94491188E58C0F853108F05EC0EC
:1026C00082EE90E0C83A09F456C089EE90E0C93A2B
:1026D00009F451C08AEE90E0CA3A09F44CC085EB87
:1026E00090E0CB3A09F447C086EB90E0CC3A09F48D
:1026F00042C083EB90E0CD3AF1F184EB90E0CE3A2A
:10270000D1F187EB90E0CF3AB1F18CEC90E0C13B96
:1027100091F18DEC90E0C03B71F183E891E0C23B18
:1027200051F18AE891E0C33B31F182E991E0C43B89
:1027300011F184E991E0C53BF1F081E292E0C63B02
:10274000D1F083E292E0C73BB1F084E292E0C83B73
:1027500091F085E292E0C93B71F086E292E0CA3BDB
:1027600051F087E292E0CB3B31F090E080E0CC3B4F
:1027700011F48AE292E0CF910C945F11CF91089509
:10278000882309F44BC0823871F40E94E61081FF5F
:1027900045C089E30E94041D0E94E51D89E30E9453
:1027A000521D0C94E51D833859F40E94E61080FFF9
:1027B00035C083E50E94041D0E94E51D83E5EFCF2F
:1027C000843859F40E94E61082FF28C087E40E94F2
:1027D000041D0E94E51D87E4E2CF9CEF980F913A1B
:1027E000F0F290E2980F983050F4877091E001C0B9
:1027F000990F8A95EAF7892F0E94B01DD2CF9BE5E9
:10280000980F933020F490E080E00C944911885A9E
:10281000853120F490E080E00C945F1108958823C6
:1028200021F00E94AA1D0C94E51D0895882321F033
:102830000E94B01D0C94E51D0895AF92BF92CF92F7
:10284000DF92EF92FF920F931F93CF93DF93CDB759
:10285000DEB729970FB6F894DEBF0FBECDBF5C017F
:1028600085E0F501DE01119601900D928A95E1F760
:10287000F50183819481892B39F090818181292F01
:1028800028232F3F09F015C329960FB6F894DEBF11
:102890000FBECDBFDF91CF911F910F91FF90EF90B1
:1028A000DF90CF90BF90AF900895F12FFF70EF2E83
:1028B000107F19F0E29440EFE422FF20D1F0EE20E7
:1028C00029F08E2D0E94BE1D0E94E51D802F2996A5
:1028D0000FB6F894DEBF0FBECDBFDF91CF911F9131
:1028E0000F91FF90EF90DF90CF90BF90AF900C943E
:1028F0000013802F0E94C013EE2031F28E2D0E9413
:10290000C41D29960FB6F894DEBF0FBECDBFDF9170
:10291000CF911F910F91FF90EF90DF90CF90BF90DC
:10292000AF900C94E51D212F2F70D22E107F103206
:1029300019F0D29430EFD322002379F0013009F45A
:1029400055C0FF2009F463C0EE2059F0F5018581E0
:1029500080FFBCCF8F70858304C0FF2059F1E11048
:1029600013C08D2D29960FB6F894DEBF0FBECDBFD4
:10297000DF91CF911F910F91FF90EF90DF90CF905B
:10298000BF90AF900C940F1431E08D2DE312EACF7D
:1029900029960FB6F894DEBF0FBECDBFDF91CF9161
:1029A0001F910F91FF90EF90DF90CF90BF90AF906D
:1029B0000C94CF1DE11015C00E94D21D8D2D2996BB
:1029C0000FB6F894DEBF0FBECDBFDF91CF911F9140
:1029D0000F91FF90EF90DF90CF90BF90AF900C944D
:1029E000161441E0E41609F44FCFE6CFFF2051F072
:1029F00055E05E1508F448CF0E94A71D8D2109F40B
:102A0000B0CFDCCF84E08E1508F43ECFD7CFEE20D8
:102A1000A9F2802F29960FB6F894DEBF0FBECDBF66
:102A2000DF91CF911F910F91FF90EF90DF90CF90AA
:102A3000BF90AF900C94C013812F869586958370BC
:102A4000D9F0813009F020CFC8019370F11002C095
:102A500090E080E029960FB6F894DEBF0FBECDBFA0
:102A6000DF91CF911F910F91FF90EF90DF90CF906A
:102A7000BF90AF900C945F11C8019370F11002C029
:102A800090E080E029960FB6F894DEBF0FBECDBF70
:102A9000DF91CF911F910F91FF90EF90DF90CF903A
:102AA000BF90AF900C944911802FFF20A1F00E949D
:102AB000C22229960FB6F894DEBF0FBECDBFDF91BC
:102AC000CF911F910F91FF90EF90DF90CF90BF902B
:102AD000AF900C94A9230E942A23EBCF812F8370FF
:102AE00009F08CC0F110D0CE202F229526952770AA
:102AF000220F220F802F8F7090E0B0E0A0E06C01D9
:102B00007D01022E04C0CC0CDD1CEE1CFF1C0A94BF
:102B1000D2F760E070E0CB0104FF0FC06FE070E01F
:102B200080E090E004C0660F771F881F991F2A95E8
:102B3000D2F76095709580959095169516951370BF
:102B40001230C9F1133009F454C09B01AC012C2997
:102B50003D294E295F292E833F83488759871130AD
:102B6000A1F0CA01B90129960FB6F894DEBF0FBED5
:102B7000CDBFDF91CF911F910F91FF90EF90DF902C
:102B8000CF90BF90AF900C94671B6E817F8188853A
:102B9000998529960FB6F894DEBF0FBECDBFDF91A1
:102BA000CF911F910F91FF90EF90DF90CF90BF904A
:102BB000AF900C943D1B9B01AC012C293D294E2963
:102BC0005F292E833F8348875987CA01B901299617
:102BD0000FB6F894DEBF0FBECDBFDF91CF911F912E
:102BE0000F91FF90EF90DF90CF90BF90AF900C943B
:102BF000911B0E94671BC701B601CBCF8695FF20B2
:102C000011F0812F8170882309F43ECE202F229568
:102C100026952770220F220F802F8F7090E0B0E052
:102C2000A0E06C017D01022E04C0CC0CDD1CEE1C6A
:102C3000FF1C0A94D2F760E070E0CB0104FF0FC0E4
:102C40006FE070E080E090E004C0660F771F881F9F
:102C5000991F2A95D2F76095709580959095169555
:102C6000169513701230C9F1133009F454C09B014A
:102C7000AC012C293D294E295F292E833F834887AB
:102C800059871130A1F0CA01B90129960FB6F894FD
:102C9000DEBF0FBECDBFDF91CF911F910F91FF908F
:102CA000EF90DF90CF90BF90AF900C946D1C6E8131
:102CB0007F818885998529960FB6F894DEBF0FBE6F
:102CC000CDBFDF91CF911F910F91FF90EF90DF90DB
:102CD000CF90BF90AF900C94431C9B01AC012C296A
:102CE0003D294E295F292E833F8348875987CA0192
:102CF000B90129960FB6F894DEBF0FBECDBFDF91A4
:102D0000CF911F910F91FF90EF90DF90CF90BF90E8
:102D1000AF900C94971C0E946D1CC701B601CBCFDD
:102D2000013F09F43FC068F4003FE9F0003E78F04D
:102D30000F70812F8F71FF2091F00E94DA1B802F7E
:102D400011CE023F09F444C0033F09F457C0FF20ED
:102D500009F47CC0E110BACD812F8F7127C00E9489
:102D6000FC1B802F2CCEFF20C1F034E03E1508F470
:102D70008BCD812F8F7129960FB6F894DEBF0FBED1
:102D8000CDBFDF91CF911F910F91FF90EF90DF901A
:102D9000CF90BF90AF900C94211C45E04E1508F4E5
:102DA00073CDE7CF812F8F71FF20B1F029960FB639
:102DB000F894DEBF0FBECDBFDF91CF911F910F9171
:102DC000FF90EF90DF90CF90BF90AF900C94DA1B04
:102DD000812F8F71FF2051F329960FB6F894DEBF33
:102DE0000FBECDBFDF91CF911F910F91FF90EF905C
:102DF000DF90CF90BF90AF900C94FC1BFF20A1F010
:102E0000812F8F7129960FB6F894DEBF0FBECDBF0C
:102E1000DF91CF911F910F91FF90EF90DF90CF90B6
:102E2000BF90AF900C94C51B29960FB6F894DEBFE7
:102E30000FBECDBFDF91CF911F910F91FF90EF900B
:102E4000DF90CF90BF90AF900C94BB1BE110E1CD11
:102E5000812F8F71C1CF412F4F70602FC5010E940C
:102E6000452029960FB6F894DEBF0FBECDBFDF9187
:102E7000CF911F910F91FF90EF90DF90CF90BF9077
:102E8000AF900C94991A412F4F70602FC50129966D
:102E90000FB6F894DEBF0FBECDBFDF91CF911F916B
:102EA0000F91FF90EF90DF90CF90BF90AF900C9478
:102EB0004820F280E580E2942FE0E22299838A8321
:102EC00089819A810E94C21C8C010E94C11C0E94AF
:102ED000321BE12FE295EF70F0E0ED5CF34D0C94C6
:102EE000D52B0E94CC1D0E94991D0E94E51D0E94B9
:102EF0001C250E94A92390E080E00E94491190E0E7
:102F000080E00C945F110E94BB1D0C9471170E940D
:102F1000C21C382F292F22952F702C3099F080F465
:102F2000243020F4223030F480E008952A5F2F709E
:102F30002230D0F781E0303E10F0303FA9F70895FD
:102F40002F3091F793FB882780F90895CF93DF9373
:102F500000D000D00F92CDB7DEB70F900F900F903A
:102F60000F900F90DF91CF910895CF93DF9300D012
:102F700000D000D0CDB7DEB726960FB6F894DEBFEE
:102F80000FBECDBFDF91CF9108951F93CF93DF93F5
:102F9000E091D60116E08091D7018E1304C0DF9135
:102FA000CF911F910895CE2FD0E01E9FF0011124E4
:102FB000E852FE4F40815181628173818481958105
:102FC0000E94B517FE013196E770E5CF40910802E7
:102FD0005091090260910A0270910B0280910C02DB
:102FE00090910D020C94B5171F93CF93DF938091AE
:102FF0000D02807FC1F480910A028823A1F08091A4
:10300000D601C091D70160910802709109024091E8
:103010000B0250910C02D62FD723DA01A095B09560
:1030200016E0C81304C0DF91CF911F91089590E07E
:103030004115510511F0DF3F31F401968770F1CF52
:103040002A0F3B1F17C0189FF001199FF00D112484
:10305000E852FE4F21812713F0CF20812613EDCFB8
:1030600022812111EACF238134812417350740F3CF
:10307000241B350B283C310500F720910D022F70E1
:10308000206120930D0226E0289FF001299FF00D7A
:103090001124E352FE4F80818F708061808388E02D
:1030A00092E00E941D14DF91CF911F910C94C517DF
:1030B0009F92AF92BF92CF92DF92EF92FF920F93C7
:1030C0001F93CF93DF93CDB7DEB72B970FB6F8944E
:1030D000DEBF0FBECDBF8C0185E0F801DE01179683
:1030E00001900D928A95E1F7D8014C9111965C916F
:1030F00011971296EC90129780910B0290910C020E
:10310000009709F46BC12091080230910902632FE6
:1031100062236F3F09F462C11396CD90DC909090CA
:103120000A02992009F4F8C0C816D90608F43FC06D
:10313000F601E81BF90BCF01FF24F394883C9105BD
:1031400008F0F12C88E0A82E82E0B82E80910D02C4
:10315000982F907FFF2009F4B7C0911180C0FE2CFA
:1031600035132AC0241328C0E11026C08F70806157
:1031700080930D020E94E617C5010E941D148091E4
:103180000D02D80115968C938F2D2B960FB6F894BF
:10319000DEBF0FBECDBFDF91CF911F910F91FF908A
:1031A000EF90DF90CF90BF90AF909F900895809563
:1031B00090958C0D9D1DC0CFCD2829F0842F85239F
:1031C0008F3F09F019C180E0B82FB170DB2EE0917C
:1031D000D6012091D70136E080FD1CC0EE20A1F27F
:1031E00080910D02816080930D02F12CCDCF8E2F46
:1031F00090E03E9FF0011124E852FE4F618165137B
:1032000006C06081641303C062816E11E7CFFC01C8
:103210003196E770E213EBCF4F8358878F81988503
:103220000E94C21C292F22952F70903260F0225FDD
:103230002F70223078F49F7051F0F8019581907FC3
:1032400031F4D12C0AC09F7011F08823D1F3805E35
:103250008830B8F3C8010E941D14FD2C95CF35139A
:1032600006C0241304C0D801EE2009F47BC04F83AC
:1032700058878F8198850E948717882309F4B8C0E2
:10328000EE2009F4B5C080910D02803270F02091DB
:103290000802309109023A8329831B82DD82CC82A5
:1032A0008E83CE0101960E941D1486E0F801A8E0ED
:1032B000B2E001900D928A95E1F70E94F4170E9406
:1032C000E617FF24F39460CF911113C07C2DDB86A9
:1032D000CA866E2D8B850E94A61788E092E00E9418
:1032E0001D1486E0F50111928A95E9F70E94E61710
:1032F0004BCF3513BCCF2413BACFE110B8CFD801D0
:1033000015968C93C8010E941D1486E0F501119258
:103310008A95E9F7F92C38CFC816D90688F1B60195
:10332000681B790BCB01F12C883C910508F047C054
:10333000FE2CEE2009F45CC0351330C024132EC0DF
:1033400080910D0280FD21C0982F907FF1F0D8016F
:1033500015968C931597903F39F0982F907F905F3A
:103360008F70892B15968C93C8010E941D1486E0DE
:10337000F801A8E0B2E001900D928A95E1F7B6CF8E
:10338000809590958C0D9D1DCECF86E0F801A8E02C
:10339000B2E001900D928A95E1F7F6CE4F835887FF
:1033A0008F8198850E94871781117FCF80910D02B0
:1033B000816080930D02C8010E941D14E5CE7C2D12
:1033C000DB86CA866E2D8B850E94A61786E0E8E014
:1033D000F2E0DF011D928A95E9F788CFEE2041F0F7
:1033E0004F8358878F8198850E94871781115DCF01
:1033F000C8010E941D1465CF81E08E25E5CE1F9384
:10340000CF93DF93CDB7DEB72C970FB6F894DEBF1E
:103410000FBECDBF4F83588769877A878B879C877C
:10342000CE0107960E945818882369F08A859B85EB
:10343000892B39F04F815885842F85238F3F09F0E0
:1034400071C016E05FC086E0FE013796DE0111967E
:1034500001900D928A95E1F78A859B85892B89F3E6
:1034600088859F8189238F3F61F32091D70130E0C8
:10347000C9010196877099274091D601481719060E
:1034800071F40E9483171092D7011092D60186E042
:10349000E8E0F2E0DF011D928A95E9F7D2CF96E0ED
:1034A000929FD001939FB00D1124A852BE4FFE01F0
:1034B000319601900D929A95E1F78093D7010E9481
:1034C000C517BFCF819FC001112488529E4F0E9413
:1034D00058188823E9F0E091D6011E9FF0011124CD
:1034E000E852FE4F408151816281738184819581D0
:1034F0000E94B5178091D60190E0019687709927B8
:103500008093D6018091D6019091D7018913DACFAB
:103510002C960FB6F894DEBF0FBECDBFDF91CF91D2
:103520001F91089569857A858B859C850E94B517C2
:1035300088CFDF92EF92FF920F931F93CF93DF9389
:103540009C01892BB9F0F12CE12CDD24D394E90105
:103550002196F9018491853709F46EC098F4843777
:1035600009F45BC0843008F073C0813011F18230FF
:1035700009F43DC0DF91CF911F910F91FF90EF9023
:10358000DF900895883709F460C058F4863709F44D
:1035900058C0873779F78F2D0E94B81D0E94E51D0E
:1035A00020C09CE7980F903728F78F770E94C013B0
:1035B00018C089010E5F1F4FFE01849190E2980FA1
:1035C000983060F48770FD2D01C0FF0F8A95EAF7EF
:1035D0008F2F0E94BE1D0E94E51D02C00E94001395
:1035E000E8018E2D815008F036C09E01B0CF8901D0
:1035F0000E5F1F4FFE01849190E2980F983050F4B7
:103600008770FD2D01C0FF0F8A95EAF78F2F0E946A
:10361000C41DE1CF0E94C013E3CF2E5F3F4FFE01D8
:10362000C491C15010F4E901DCCF8FE99FE001970C
:10363000F1F700C00000F5CF2E5F3F4FFE01E49090
:10364000F2CF0E94A71DF82ECCCF0E94BB1DA6CFA3
:103650000E940013C6CFEFE9FFE03197F1F700C0F9
:103660000000C0CF089560931202709313028093FC
:103670001402909315020C947117CF93DF9300D02E
:1036800000D0CDB7DEB769837A838B839C8380912A
:10369000120290911302A0911402B0911502298197
:1036A0003A814B815C81822B932BA42BB52B809389
:1036B000120290931302A0931402B09315020F907C
:1036C0000F900F900F90DF91CF910C947117CF93C3
:1036D000DF9300D000D0CDB7DEB769837A838B83C8
:1036E0009C838091120290911302A0911402B091D8
:1036F000150229813A814B815C8182239323A42383
:10370000B5238093120290931302A0931402B093F6
:1037100015020F900F900F900F90DF91CF910C94A6
:103720007117CF93DF9300D000D0CDB7DEB7698398
:103730007A838B839C838091120290911302A091D3
:103740001402B091150229813A814B815C81822754
:103750009327A427B5278093120290931302A09376
:103760001402B09315020F900F900F900F90DF91FD
:10377000CF910C94711710920E0210920F021092BA
:103780001002109211020C94711741E050E060E0B9
:1037900070E004C0440F551F661F771F8A95D2F74B
:1037A00040930E0250930F02609310027093110227
:1037B0000C947117282F81E090E0A0E0B0E004C0E5
:1037C000880F991FAA1FBB1F2A95D2F740910E029E
:1037D00050910F026091100270911102842B952B71
:1037E000A62BB72B80930E0290930F02A09310028A
:1037F000B09311020C94711741E050E060E070E06A
:1038000004C0440F551F661F771F8A95D2F7409555
:1038100050956095709580910E0290910F02A09145
:103820001002B091110284239523A623B72380931D
:103830000E0290930F02A0931002B09311020C9409
:103840007117282F81E090E0A0E0B0E004C0880F5D
:10385000991FAA1FBB1F2A95D2F740910E025091C3
:103860000F02609110027091110284279527A627FC
:10387000B72780930E0290930F02A0931002B0938B
:1038800011020C947117CF93DF9300D000D0CDB705
:10389000DEB769837A838B839C8380910E0290913B
:1038A0000F02A0911002B091110229813A814B813F
:1038B0005C81822B932BA42BB52B80930E029093CB
:1038C0000F02A0931002B09311020F900F900F906F
:1038D0000F90DF91CF910C947117CF93DF9300D0AD
:1038E00000D0CDB7DEB769837A838B839C838091C8
:1038F0000E0290910F02A0911002B0911102298145
:103900003A814B815C8182239323A423B523809346
:103910000E0290930F02A0931002B09311020F9029
:103920000F900F900F90DF91CF910C947117CF9360
:10393000DF9300D000D0CDB7DEB769837A838B8365
:103940009C8380910E0290910F02A0911002B09181
:10395000110229813A814B815C8182279327A42718
:10396000B52780930E0290930F02A0931002B0939C
:1039700011020F900F900F900F90DF91CF910C9448
:1039800071170895CF92DF92EF92FF920F931F93DA
:10399000CF93DF938C01C0900E02D0900F02E09085
:1039A0001002F09011028091120290911302A091E6
:1039B0001402B0911502C82AD92AEA2AFB2ACFE1BB
:1039C000D0E0D701C6010C2E04C0B695A7959795F7
:1039D00087950A94D2F780FF10C0B8018C2F0E94FF
:1039E000DE1F8130910549F0DF91CF911F910F913A
:1039F000FF90EF90DF90CF900895219710F7B801D6
:103A000080E00E94DE1FF0CF90910B01992369F1B5
:103A100090910C01992349F1E82FE695E695E695FA
:103A2000883790F420910D0130910E01E20FF32FB1
:103A3000F11D877021E030E001C0220F8A95EAF77E
:103A40008181822B818308959091290290FF22C069
:103A50001F928F938EE794E09F938F930E944D0760
:103A60000F900F900F900F90089520910D013091BD
:103A70000E01F90132969FEF40E05191851751F008
:103A80009F3F19F4511101C0942F4F5F4E30A9F799
:103A90009F3F09F40895290F311D97FD3A95F901CB
:103AA0008283089590910B01992389F190910C01E3
:103AB000992369F1E82FE695E695E6958837B0F405
:103AC00020910D0130910E01E20FF32FF11D87704F
:103AD00021E030E0A90102C0440F551F8A95E2F7AA
:103AE000CA0180959181892381830895909129024B
:103AF00090FF1EC01F928F9380E694E09F938F9358
:103B00000E944D070F900F900F900F9008952091F5
:103B10000D0130910E01F9013296205F3F4F9191D6
:103B2000891303C0DF0111971C92E217F307B9F75D
:103B3000089581E090E0E0910D01F0910E01E80F11
:103B4000F91F1082019680319105A9F7089580919F
:103B50002802089590912802982B909328020895A6
:103B6000982F9095809128028923809328020895A8
:103B700080932802089510922802089590912702B8
:103B8000982B909327020895982F90958091270263
:103B90008923809327020895109227020895809325
:103BA0001602089510921602089520910D01309189
:103BB0000E01F9013196205F3F4F80E09191911104
:103BC0008F5FE217F307D1F70895E0910D01F091AF
:103BD0000E01809128028083E0910D01F0910E0189
:103BE000808190912702892B8083909116029923DE
:103BF00061F0E0910D01F0910E018081892B8083AD
:103C00000E94D51D81111092160280910D01909194
:103C10000E010C94F21090933901809338010895AD
:103C2000829594E0899F900111242C7C869586953D
:103C30008373282B30E0C901880F991F8A7A359544
:103C400027952575822B0895CF93DF93D92F0E9456
:103C5000101EC82F8D2F0E94101E9C2FDF91CF9118
:103C6000089580913F02843011F188E190E020E4D2
:103C70000FB6F894A895809360000FBE2093600063
:103C800083B7817F846083BF83B7816083BF78946B
:103C9000889583B78E7F83BF0FB6F894A8958091DF
:103CA0006000886180936000109260000FBE0895EC
:103CB00008950895CF93DF9300D000D00F92CDB731
:103CC000DEB70E94581E0E94AC070E94591E1D823A
:103CD0008D810E94E408672B682B692B71F48D811C
:103CE0008F5F8D838830A1F780E00F900F900F9049
:103CF0000F900F90DF91CF91089581E0F6CF0C9453
:103D0000831782E084BD93E095BD9AEF97BD8093C1
:103D10006E0008952FB7F89480912A0290912B029B
:103D2000A0912C02B0912D022FBF0895CF93DF9365
:103D300000D000D0CDB7DEB78FB7F89420912A021B
:103D400030912B0240912C0250912D0229833A830D
:103D50004B835C838FBF69817A818B819C810F90BB
:103D60000F900F900F90DF91CF910895CF92DF9237
:103D7000EF92FF929C014FB7F89480912A029091A4
:103D80002B02A0912C02B0912D024FBF6C017D013E
:103D9000EE24FF24A90170E060E0C416D506E60613
:103DA000F70638F0821B930BFF90EF90DF90CF90D7
:103DB00008950197F7CF1F921FB61F9211248F937A
:103DC0009F93AF93BF9380912A0290912B02A09171
:103DD0002C02B0912D020196A11DB11D80932A02E3
:103DE00090932B02A0932C02B0932D02BF91AF9120
:103DF0009F918F911F901FBE1F9018950E94050ED6
:103E0000F8942FEF87EA91E6215080409040E1F747
:103E100000C0000087E090EBDC01809349029093A2
:103E20004A02A0934B02B0934C0288E19CE00FB68B
:103E3000F894A895809360000FBE90936000FFCF28
:103E40008D3B98F4883A40F5853A50F48430E0F49C
:103E500031E020E0813009F030E0832F922F089587
:103E6000853AA1F481E890E40895883E40F4803ECC
:103E700058F48F3B09F452C090E080E00895803FF1
:103E8000D8F390E09065089590E00895863A09F49B
:103E900053C083E890E40895883A09F450C0893A01
:103EA00009F450C08A3A09F450C08B3A09F450C062
:103EB0008C3A09F450C08D3A09F450C08E3A09F496
:103EC00050C08F3A09F450C0813B09F450C0803B88
:103ED00009F450C0823B09F450C0833B09F450C040
:103EE000843B09F450C0853B09F450C0863B09F47B
:103EF00050C0873B09F450C0883B09F450C0893B4F
:103F000009F450C08A3B09F450C08B3B09F450C0FF
:103F10008C3B09F450C080E094E408950E9483171C
:103F20002FEF80E792E0215080409040E1F700C001
:103F300000000E94FE1EA0CF82E890E4089582EE69
:103F400094E4089589EE94E408958AEE94E4089543
:103F500085EB94E4089586EB94E4089583EB94E470
:103F6000089584EB94E4089587EB94E408958CEC31
:103F700094E408958DEC94E4089583E895E408951D
:103F80008AE895E4089582E995E4089584E995E442
:103F9000089581E296E4089583E296E4089584E228
:103FA00096E4089585E296E4089586E296E40895FD
:103FB00087E296E408958AE296E408950E945607FF
:103FC000803ED0F4803C88F5813309F452C040F43F
:103FD000893209F448C08A3209F451C00C94201F78
:103FE000893329F1823819F18533C1F7809148026C
:103FF00085FF3DC089E2F2CF833E39F160F4803E17
:10400000E1F0823E59F78091480282FF22C084FF8E
:104010001AC080E0E3CF863EF1F0873EF9F680914A
:10402000480283FF1CC086EED9CF0C94670790919D
:104030004802937099F280EED1CF8091480280FFC0
:10404000FACF89E3CBCF83EEC9CF8091480282FFBC
:10405000DECF82EEC3CF8091480283FFE4CF84FDA0
:10406000D8CF87EEBBCF8091480285FFC3CF85E3D1
:10407000B5CF8091480286FF06C08AE2AFCF80911B
:10408000480286FFFACF81E3A9CF90E080E008954F
:1040900008958F929F92AF92BF92EF92FF920F93EB
:1040A0001F93CF937C01C0E08C2F0E94E4084B014A
:1040B0005C0110E000E0D501C401002E04C0B695FB
:1040C000A795979587950A94D2F780FF1EC0602F19
:1040D0007C2F80E00E94DE1F9C018E159F0551F011
:1040E000832F807E932F907C11F0803A71F42E15EF
:1040F0001F0459F481E0CF911F910F91FF90EF9031
:10410000BF90AF909F908F9008950F5F1F4F013128
:10411000110589F6CF5FC83039F680E0ECCFCF9338
:10412000DF93D82FC92F8CE290E00E94492088238A
:1041300031F08D2F9C2FDF91CF910C94492080E09E
:10414000DF91CF910895CF93DF9300D000D0CDB70A
:10415000DEB70E941922811102C00E94FF2183EA6A
:1041600094E00E94B40625E62983998191509983B1
:1041700091110FC18CE994E00E94B40689E290E0AD
:104180000E948F20811134C18AE290E00E948F202A
:1041900081110E94FF2185E090E00E948F20811113
:1041A0000E94FE1E0E9424228093290287E090E054
:1041B0000E948F20882379F08BE190E00E948F206D
:1041C000882309F4EFC090912902892F8D7F91FFF8
:1041D000826080932902809129020E9428220E94F5
:1041E00036228093480280EE90E00E948F20882340
:1041F00041F090914802892F8E7F90FF81608093DB
:10420000480289E390E00E948F20882341F090913A
:104210004802892F8D7F91FF82608093480282EE51
:1042200090E00E948F20882341F090914802892FCE
:104230008B7F92FF84608093480286EE90E00E941C
:104240008F20882341F090914802892F877F93FF28
:1042500088608093480283EE90E00E948F2088233C
:1042600041F090914802892F8F7E94FF8061809366
:10427000480285E390E00E948F20882341F09091CE
:104280004802892F8F7D95FF80628093480281E3E9
:1042900090E00E948F20882341F090914802892F5E
:1042A0008F7B96FF80648093480281E190E00E94BA
:1042B0008F20882341F090914802892F97FB87F93E
:1042C000805880934802809148020E943A2280914F
:1042D000480287FB882780F980930C0187E290E0F1
:1042E0000E948F2089838EE190E00E948F20882396
:1042F00019F0A981A260A9838FE190E00E948F202C
:10430000882319F0B981B460B98380E290E00E94FB
:104310008F20882319F029812860298381E290E089
:104320000E948F20882319F039813061398382E21D
:1043300090E00E948F20882319F0498140624983D0
:1043400083E290E00E948F20882319F05981506405
:10435000598384E290E00E948F20882309F441C0B1
:1043600089818068898389810E9431223981232F44
:1043700030E050E040E029833A834B835C83CA01FC
:10438000B9010F900F900F900F90DF91CF910C9487
:10439000331B0E94AC078FE39CE90197F1F700C043
:1043A0000000E3CE8EE090E00E948F20882339F059
:1043B00090912902892F8B7F92FF84600ACF80E140
:1043C00090E00E948F2090912902882329F0892F64
:1043D000877F93FF8860FDCE892F8E7F90FF81605D
:1043E000F8CE99819111BFCF0E942D22282FC0CFE6
:1043F0000F900F900F900F90DF91CF9108956DEE79
:104400007EEF90E080E00E940B2C60E082E090E084
:104410000E94FD2B60E083E090E00E94FD2B60E0B5
:1044200084E090E00E94FD2B60E085E090E00C9439
:10443000FD2B90E080E00E94F72B9C0181E02D3E57
:104440003E4F09F080E0089582E090E00C94EF2B5D
:10445000682F82E090E00C94FD2B83E090E00C94B8
:10446000EF2B682F83E090E00C94FD2B84E090E02C
:104470000C94EF2B682F84E090E00C94FD2B80913E
:10448000300280FF12C06091120185E0689FB00188
:104490001124759567957595679560387105A8F530
:1044A00061157105A1F1862F089581FF09C0609102
:1044B000120185E0689FB001112475956795EDCFD5
:1044C0006091120182FD0AC0809131028823D1F0EF
:1044D0009091110160911201891728F085E0689F81
:1044E000B0011124DACF869FB001112485E0869FA8
:1044F0009001879F300D1124692F70E0C9010E943F
:10450000C12BCBCF65E070E0CECF8FE7089581E07F
:1045100008958091300280FF0CC06091100170E01E
:1045200075956795759567956115710549F1862FA4
:10453000089581FF06C06091100170E07595679540
:10454000F3CF6091100182FD0BC09091310299234D
:10455000A1F060910F0180911001961738F0682F3B
:1045600070E06038710500F38FE70895899FC001FE
:10457000112470E00E94C12BF4CF61E070E0D7CF2E
:1045800081E00895803F31F40E943F22819580931D
:1045900034020895813F19F40E943F22F8CF823FF0
:1045A00031F40E943F228195809333020895833F26
:1045B00019F40E943F22F8CF893F29F40E948922F2
:1045C0008093350208958A3F21F40E9489228195C3
:1045D000F7CF8B3F31F40E94892281958093360278
:1045E00008958C3F19F40E948922F8CF843F31F45A
:1045F000809132028160809332020895853F21F4D8
:10460000809132028260F7CF863F21F4809132029E
:104610008460F1CF873F21F4809132028860EBCF34
:10462000883F21F4809132028061E5CF8D3F31F4E3
:104630008091300281608093300208958E3F21F492
:10464000809130028260F7CF8F3FB9F780913002BE
:104650008460F1CF90913302803F41F48091340225
:1046600087FD10923402992371F00895813F29F457
:10467000809134021816ACF3F6CF823F81F497FF95
:10468000F2CF109233028091340290913502892B3F
:1046900090913602892B49F7109231020895833F99
:1046A00019F4191674F3DFCF893F39F4809135027C
:1046B0001816CCF610923502D6CF8A3F29F4809195
:1046C000350287FFD0CFF6CF8B3F39F48091360289
:1046D00087FFC9CF10923602C6CF8C3F29F4809154
:1046E00036021816BCF3BFCF843F31F480913202FA
:1046F0008E7F80933202B7CF853F21F480913202C2
:104700008D7FF7CF863F21F4809132028B7FF1CFEE
:10471000873F21F480913202877FEBCF883F21F4DD
:10472000809132028F7EE5CF8D3F31F4809130024F
:104730008E7F8093300297CF8E3F21F4809130029C
:104740008D7FF7CF8F3F09F08ECF809130028B7F26
:10475000F0CF8091290283FF7EC08FED94E00E940C
:10476000B406809132021F928F938AED94E09F935A
:104770008F930E944D0788ED94E00E94B4068091CB
:104780003302282F082E000C330B3F938F9385EDB7
:1047900094E09F938F930E944D0783ED94E00E94D5
:1047A000B40680913402282F082E000C330B3F935F
:1047B0008F9380ED94E09F938F930E944D078EEC32
:1047C00094E00E94B40680913502282F082E000C38
:1047D000330B3F938F938BEC94E09F938F930E94C6
:1047E0004D0789EC94E00E94B40680913602282F90
:1047F000082E000C330B3F938F9386EC94E09F932D
:104800008F930E944D0783EC94E00E94B406809140
:1048100031021F928F9380EC94E09F938F930E94BC
:104820004D078EEB94E00E94B406809130021F92F7
:104830008F938BEB94E09F938F930E944D0788EBAF
:1048400094E00E94B4068DB79EB74C960FB6F894CC
:104850009EBF0FBE8DBF82E392E00E943E110E9478
:104860008A1E90932F0280932E0208951F93CF9358
:10487000DF9300D000D000D0CDB7DEB780912E02FC
:1048800090912F020E94B61EAC01809131022091BE
:10489000130130E0811106C0209114019AE0299F94
:1048A000900111244217530788F020913302A09100
:1048B0003402A98310913502B0913602BE832111D2
:1048C0000FC09A2F912B9B2B09F0B2C026960FB6E2
:1048D000F894DEBF0FBECDBFDF91CF911F91089539
:1048E0008F3F19F08F5F80933102121624F40E94DB
:1048F0003F22809333028091330287FF05C00E94DC
:104900003F228195809333022981121624F40E945C
:104910003F22809334028091340287FF05C00E94B9
:104920003F2281958093340280913302882309F4D9
:1049300055C0309134023D83332309F44FC0282FF2
:10494000880F330B440B550B29833A834B835C83CD
:10495000CA01B9010E94BC2A23E333E343E35FE3C6
:1049600069837A838B839C8369817A818B819C8123
:104970000E94202B69837A838B839C8369817A814F
:104980008B819C810E94842A609333028D81082E42
:10499000000C990BAA0BBB0B89839A83AB83BC8356
:1049A000BC01CD010E94BC2A23E333E343E35FE370
:1049B00069837A838B839C8369817A818B819C81D3
:1049C0000E94202B69837A838B839C8369817A81FF
:1049D0008B819C810E94842A60933402111624F4F6
:1049E0000E948922809335028091350287FF05C09D
:1049F0000E9489228195809335029E81191624F4A4
:104A00000E948922809336028091360287FF05C07A
:104A10000E94892281958093360226960FB6F894DB
:104A2000DEBF0FBECDBFDF91CF911F910C94A923A4
:104A30008F3F09F057CF68CF85E0E2E3F2E0DF0176
:104A40001D928A95E9F71092310210923002089572
:104A500082E097E00E94B4061F9281E08F931F923C
:104A600085E08F9384EB96E09F938F930E944D0790
:104A70000F900F900F900F900F900F90089584302B
:104A800009F45DC040F4823061F1833009F440C024
:104A9000813041F00895853009F468C0863009F40A
:104AA0007CC0089580911401482F460F5527551F4B
:104AB0004F3F510594F4680F6093140180911401E5
:104AC0001F928F938DEE95E09F938F930E944D07D9
:104AD0000F900F900F900F9008958FEF8093140117
:104AE000EDCF80911301482F460F5527551F4F3F9B
:104AF000510554F4680F60931301809113011F92C4
:104B00008F938BED95E0E0CF8FEF80931301F5CF7E
:104B100080911201482F460F5527551F4F3F5105D1
:104B200054F4680F60931201809112011F928F93C9
:104B300088EC95E0C9CF8FEF80931201F5CF80917B
:104B40001101482F460F5527551F4F3F510554F46B
:104B5000680F60931101809111011F928F9383EB75
:104B600095E0B2CF8FEF80931101F5CF80911001C6
:104B7000482F460F5527551F4F3F510554F4680FD6
:104B800060931001809110011F928F938AE995E044
:104B90009BCF8FEF80931001F5CF80910F01482FAD
:104BA000460F5527551F4F3F510554F4680F60932A
:104BB0000F0180910F011F928F938FE795E084CFB3
:104BC0008FEF80930F01F5CF843009F44AC038F499
:104BD000823029F18330A1F1813041F00895853090
:104BE00009F450C0863009F45EC008958091140124
:104BF000681790F4861B80931401809114011F9212
:104C00008F9380E795E09F938F930E944D070F90BD
:104C10000F900F900F90089510921401EECF809195
:104C20001301681750F4861B8093130180911301C0
:104C30001F928F938EE595E0E6CF10921301F6CF89
:104C400080911201681750F4861B809312018091A5
:104C500012011F928F938BE495E0D5CF1092120131
:104C6000F6CF80911101681750F4861B80931101D3
:104C7000809111011F928F9386E395E0C4CF10922B
:104C80001101F6CF80911001681750F4861B8093B4
:104C90001001809110011F928F938DE195E0B3CFA9
:104CA00010921001F6CF80910F01681750F4861B07
:104CB00080930F0180910F011F928F9382E095E006
:104CC000A2CF10920F01F6CFCF93DF9300D000D088
:104CD000CDB7DEB789831F928F9387E098E09F93CB
:104CE0008F930E944D0781E090E0A0E0B0E09C012E
:104CF000AD01098004C0220F331F441F551F0A94C1
:104D0000D2F729833A834B835C83CA01B9010E949D
:104D1000331B0F900F900F900F900F900F900F90EC
:104D20000F90DF91CF910C948317CF93893358F470
:104D3000863098F0EAEFE80FE33378F4F0E0ED5BCB
:104D4000F34D0C94D52B833409F424C260F496EC13
:104D5000980F8953993008F41EC28DE29AE00E94A0
:104D6000B406C0E011C28834C1F70E9483178DE4F5
:104D70009CE00E94B4069FEF23ED80E39150204019
:104D80008040E1F700C000000E94FE1E0AC08DE6D0
:104D90009CE00E94B4060E943E2A0E94E6100E94F7
:104DA0004609C1E0F1C182E69CE00E94B4068DE1B3
:104DB0009AE00E94B4060E942D221F928F938AE1EE
:104DC0009AE09F938F930E944D0788E19AE00E949A
:104DD000B4060E942422C82F85E09AE00E94B406FF
:104DE0001F92CF9380E09AE09F938F930E944D078C
:104DF0008EEF99E00E94B40684EF99E00E94B40619
:104E00008C2F81701F928F9381EF99E09F938F93E6
:104E10000E944D078FEE99E00E94B40685EE99E05E
:104E20000E94B406C1FB882780F91F928F9382EEFF
:104E300099E09F938F930E944D0780EE99E00E9426
:104E4000B40684ED99E00E94B406C2FB882780F97D
:104E50001F928F9381ED99E09F938F930E944D074E
:104E60008FEC99E00E94B40686EC99E00E94B406AB
:104E7000C3FBCC27C0F91F92CF9383EC99E09F939B
:104E80008F930E944D0781EC99E00E94B4060E9426
:104E90003622C82F8DEA99E00E94B4061F92CF9364
:104EA00088EA99E09F938F930E944D0786EA99E0E4
:104EB0000E94B4068DE899E00E94B4068C2F8170A0
:104EC0001F928F938AE899E09F938F930E944D07DA
:104ED0008DB79EB780960FB6F8949EBF0FBE8DBF5C
:104EE00088E899E00E94B40681E799E00E94B40640
:104EF000C1FB882780F91F928F938EE699E09F93DC
:104F00008F930E944D078CE699E00E94B4068AE5D3
:104F100099E00E94B406C2FB882780F91F928F9304
:104F200087E599E09F938F930E944D0785E599E06F
:104F30000E94B40683E499E00E94B406C3FB88276C
:104F400080F91F928F9380E499E09F938F930E9442
:104F50004D078EE399E00E94B40684E399E00E9435
:104F6000B406C4FB882780F91F928F9381E399E0F0
:104F70009F938F930E944D078FE299E00E94B406A1
:104F80008DE199E00E94B406C5FB882780F91F9245
:104F90008F938AE199E09F938F930E944D0788E158
:104FA00099E00E94B4068CEF98E00E94B406C6FB1C
:104FB000882780F91F928F9389EF98E09F938F93B2
:104FC0000E944D0787EF98E00E94B4068FEE98E0AC
:104FD0000E94B406C7FBCC27C0F91F92CF938CEE7A
:104FE00098E09F938F930E944D078AEE98E00E946D
:104FF000B4068DB79EB74C960FB6F8949EBF0FBE01
:105000008DBFCFCE83E398E00E94B406CACE8091D4
:105010002902807F809329028CE098E00E94B406E8
:105020008EE59CE00E94B40681E080933802B9CE00
:105030008091290280FF0AC080E49CE00E94B406AF
:1050400080912902807F80932902ABCE84E39CE08B
:105050000E94B406809129028160F5CF90912902C7
:10506000892F8D7F91FF82608093290281FF03C089
:1050700087E29CE0EDCF89E19CE0C6CF90912902C8
:10508000892F8B7F92FF84608093290282FF03C067
:105090008AE09CE0DDCF8AEF9BE0B6CF90912902B9
:1050A000892F877F93FF88608093290283FF03C045
:1050B0008EEE9BE0CDCF81EE9BE0A6CF82ED9BE014
:1050C0000E94B4068DE99BE00E94B4068AE59BE04D
:1050D0000E94B40683E39BE00E94B4068EEE9AE041
:1050E0000E94B40680EC9AE08FCF82EB9AE00E9497
:1050F000B4060E94E6101F928F9388E99AE09F936E
:105100008F930E944D0780910B011F928F9381E82E
:105110009AE09F938F930E944D0780918E011F927A
:105120008F938EE69AE09F938F930E944D07809114
:105130000C011F928F938BE59AE09F938F930E94AF
:105140004D070E94961E9F938F937F936F9384E4E5
:105150009AE09F938F930E944D078DB79EB7469616
:105160000FB6F8949EBF0FBE8DBF1BCE0E94831753
:10517000C0910C0181E0C827C0930C01CC2339F009
:105180008AE39AE00E94B4068C2FCF9108958FE2B3
:105190009AE03ACF80E00E94642603CE8D51FBCF87
:1051A00080E008950C94D028CF93C82F80913802C6
:1051B0008130C1F0823009F44CC081113DC1E091D1
:1051C0000D01F0910E018081823209F037C18C2FE0
:1051D0000E94D02881111EC08C2F0E9495268170BC
:1051E000CF910895E0910D01F0910E0180818232FE
:1051F00071F38C2F0E94D22881111BC0C431D9F0C9
:1052000060F4CB3071F0C031D1F08DEF97E00E94A7
:10521000B40613C081E090E0E2CFC93261F0C83338
:10522000A1F78CE098E00E94B40683E098E00E9429
:10523000B40681E0D4CF1092380280E0D0CF0E9433
:1052400028258FEF97E00E94B40682E08093380211
:10525000F0CFC93209F446C068F5C33109F451C032
:1052600050F4C73009F4CEC0CB30C9F181EA96E0E2
:105270000E94B4061DC0C431A9F1CE51C630B0F7AA
:10528000EC2FF0E0E25DFE4F808180933702809149
:105290003702882309F4CDC01F928F938BE996E0E3
:1052A0009F938F930E944D070F900F900F900F9038
:1052B00081E096CFCE3409F4A3C050F4C83379F01E
:1052C0006AE0CB3499F6809137020E943F25DFCF08
:1052D000C13509F48FC061E0C235A9F3C7CF0E9480
:1052E0002825D5CF80913702882319F010923702F4
:1052F000CECF80EB96E00E94B40681E08093380226
:105300006FCF8AE896E00E94B40688E796E00E9494
:10531000B406809114011F928F9385E796E09F93C6
:105320008F930E944D0783E796E00E94B40681E6C2
:1053300096E00E94B406809113011F928F938EE530
:1053400096E09F938F930E944D078CE596E00E9414
:10535000B4068DE496E00E94B406809112011F927B
:105360008F938AE496E09F938F930E944D0788E481
:1053700096E00E94B40687E396E00E94B40680910E
:1053800011011F928F9384E396E09F938F930E9465
:105390004D0782E396E00E94B4068DE196E00E94FC
:1053A000B406809110011F928F938AE196E09F933B
:1053B0008F930E944D0788E196E00E94B40681E039
:1053C00096E00E94B40680910F011F928F938EEF9A
:1053D00095E09F938F930E944D078CEF95E00E947C
:1053E000B4068DB79EB748960FB6F8949EBF0FBE11
:1053F0008DBF4DCF61E0809137020E94E42547CFF9
:105400006AE0F9CF8EE18093140182E38093130167
:105410008AE08093120184E18093110188E08093F7
:10542000100188E280930F0183EA96E00E94B4069F
:105430002ECF88E996E01CCF1092380280E0D0CEC3
:10544000E1E8F0E0808188608083808181608083F2
:105450008FB7F89493E09093890090ED9093880033
:105460008FBF0895EFE6F0E0808182608083089529
:10547000EFE6F0E080818D7F80830895EFE6F0E035
:10548000808192E08927808308951F920F920FB642
:105490000F9211242F933F934F935F936F937F93BA
:1054A0008F939F93AF93BF93EF93FF9380913902B4
:1054B00090913A02019690933A02809339028111B9
:1054C00003C082E00E944609E0913A02E695E69523
:1054D000F0E0E358F34FE491809139028E1303C05A
:1054E00080E00E944609FF91EF91BF91AF919F919B
:1054F0008F917F916F915F914F913F912F910F907D
:105500000FBE0F901F9018950E948B2A6894B111BE
:105510000C941A2B08950E94FF2A88F09F5798F048
:10552000B92F9927B751B0F0E1F0660F771F881FA8
:10553000991F1AF0BA95C9F714C0B13091F00E94C2
:10554000192BB1E008950C94192B672F782F882719
:10555000B85F39F0B93FCCF3869577956795B395E9
:10556000D9F73EF490958095709561957F4F8F4F58
:105570009F4F0895E89409C097FB3EF4909580955D
:10558000709561957F4F8F4F9F4F9923A9F0F92F09
:1055900096E9BB279395F695879577956795B79587
:1055A000F111F8CFFAF4BB0F11F460FF1BC06F5F6D
:1055B0007F4F8F4F9F4F16C0882311F096E911C07F
:1055C000772321F09EE8872F762F05C0662371F0A0
:1055D00096E8862F70E060E02AF09A95660F771FB4
:1055E000881FDAF7880F9695879597F9089557FDE4
:1055F0009058440F551F59F05F3F71F04795880F41
:1056000097FB991F61F09F3F79F0879508951216D7
:1056100013061406551FF2CF4695F1DF08C0161683
:1056200017061806991FF1CF869571056105089434
:105630000895E894BB2766277727CB0197F908954B
:105640000E94332B0C94A42B0E94962B38F00E94BE
:105650009D2B20F0952311F00C948D2B0C94932B03
:1056600011240C941A2B0E94F72A70F3959FC1F312
:10567000950F50E0551F629FF001729FBB27F00D00
:10568000B11D639FAA27F00DB11DAA1F649F662755
:10569000B00DA11D661F829F2227B00DA11D621FA4
:1056A000739FB00DA11D621F839FA00D611D221F5E
:1056B000749F3327A00D611D231F849F600D211D42
:1056C000822F762F6A2F11249F5750409AF0F1F0C5
:1056D00088234AF0EE0FFF1FBB1F661F771F881F2E
:1056E00091505040A9F79E3F510580F00C948D2BAE
:1056F0000C941A2B5F3FE4F3983ED4F3869577958C
:105700006795B795F795E7959F5FC1F7FE2B880FD3
:10571000911D9695879597F9089597F99F6780E869
:1057200070E060E008959FEF80EC089500240A94F3
:105730001616170618060906089500240A9412166C
:105740001306140605060895092E0394000C11F49F
:10575000882352F0BB0F40F4BF2B11F460FF04C04C
:105760006F5F7F4F8F4F9F4F0895991B79E004C063
:10577000991F961708F0961B881F7A95C9F7809590
:10578000089597FB072E16F4009407D077FD09D0F3
:105790000E94DB2B07FC05D03EF4909581959F4F2E
:1057A0000895709561957F4F0895EE0FFF1F059046
:1057B000F491E02D0994AA1BBB1B51E107C0AA1F5D
:1057C000BB1FA617B70710F0A61BB70B881F991FA2
:1057D0005A95A9F780959095BC01CD010895F99946
:1057E000FECF92BD81BDF89A992780B50895A8E1B2
:1057F000B0E042E050E00C94122C262FF999FECF35
:105800001FBA92BD81BD20BD0FB6F894FA9AF99ADD
:105810000FBE019608950E94FD2B272F0C94FE2B9E
:10582000DC01CB01FC01F999FECF06C0F2BDE1BD60
:10583000F89A319600B40D9241505040B8F708954F
:10584000F894FFCF8E089108940897089A089D084D
:10585000A008C00FE50FC910E50FC91015103610CC
:10586000C9108B10971055145514931493141C15CC
:105870005415441444146E154414901690162B17A6
:1058800044144414431707281828D326AD26AD2600
:105890000228AD26AD263E28AD264E28B628AD26D8
:1058A000AD26AD26AD267528AD26AD265E28AD26E3
:1058B0002E28AD26C726CE28CE28CE28CE28CE2804
:1058C000CE28CE28CE28CE28CA28AD26CA28AD2676
:1058D000AD26AD26AD26AD26AD26AD26AD26AD2630
:0C58E000AD26AD26CA28AD26AD26022854
:1058EC00054709360A130ADF09AC0901011702281A
:1058FC0008140A321E3F4D362039ED03A0036A030B
:10590C004A03110384029D02B602CF02EF02010288
:08591C00030405060708090059
:00000001FF
